:020000040800F2
:1000000000280020FD130008910E0008970E00083C
:100010009D0E0008A30E0008A90E000800000000B5
:10002000000000000000000000000000AF0E00080B
:10003000BB0E000800000000C70E0008D30E000829
:10004000451400084514000845140008451400082C
:10005000451400084514000845140008451400081C
:10006000451400084514000845140008451400080C
:1000700045140008451400084514000845140008FC
:1000800045140008451400084514000845140008EC
:1000900045140008451400084514000845140008DC
:1000A00045140008451400084514000845140008CC
:1000B000E10E000845140008000000004514000887
:1000C000451400080000000000000000451400086E
:1000D000000000004514000845140008000000005E
:1000E00045140008451400084514000800000000ED
:1000F0000000000000000000000000000000000000
:0C01000000000000000000005FF808F1A3
:10010C0010B5054C237833B9044B13B10448AFF345
:10011C0000800123237010BD40000020000000006F
:10012C00742A000808B5034B1BB103490348AFF30D
:10013C00008008BD0000000044000020742A000864
:10014C0080B483B000AF7860094A7B6852F82330E2
:10015C00012B06D1064A7B68002142F823100123AB
:10016C0000E0002318460C37BD4680BC704700BF2A
:10017C005C00002080B483B000AF7860094A7B68D3
:10018C0052F82330012B06D1064A7B68002142F835
:10019C002310012300E0002318460C37BD4680BC19
:1001AC00704700BF6800002080B582B000AF00230C
:1001BC007B6079E0404A7B68134419783F4A7B683E
:1001CC0013440A461A703E4A7B68134419783A4A1B
:1001DC007B6813440A461A703A4A7B6852F823200B
:1001EC0039497B6831F813301946104601F010FC80
:1001FC0003461946324A7B6813440A461A702F4A42
:10020C007B6813441A782C497B680B441B789A4200
:10021C0047D1294A7B6813441A7829497B680B44D7
:10022C001B789A423DD1294A7B6813441A78244999
:10023C007B680B441B789A4214D0214A7B68134488
:10024C001978224A7B6813440A461A701C4A7B6848
:10025C0013441B78002B24D11D4A7B68012142F8E2
:10026C0023101EE01B4A7B6852F823305A1C194994
:10027C007B6841F82320174A7B6852F82330632BA4
:10028C000FDD0F4A7B6813441B78002B04D1124AF4
:10029C007B68012142F823100E4A7B68002142F84A
:1002AC0023107B6801337B607B68022B82DD00BFEF
:1002BC0000BF0837BD4680BD0800002004000020A8
:1002CC000C000020100000201C000020000000206A
:1002DC005C000020740000206800002080B582B013
:1002EC0000AF78607B68092B00F2808101A252F884
:1002FC0023F000BF2903000871030008B9030008AC
:10030C00010400084904000891040008D9040008FD
:10031C002105000869050008B1050008002201212B
:10032C00B54801F08CFB00220221B34801F087FB99
:10033C0000220421B04801F082FB00220821AE48C3
:10034C0001F07DFB00221021AB4801F078FB00226C
:10035C002021A94801F073FB01224021A64801F09D
:10036C006EFB44E101220121A34801F068FB00224D
:10037C000221A14801F063FB002204219E4801F0F8
:10038C005EFB012208219C4801F059FB012210213F
:10039C00994801F054FB01222021974801F04FFBB2
:1003AC0001224021944801F04AFB20E10022012166
:1003BC00914801F044FB002202218F4801F03FFBE1
:1003CC00012204218C4801F03AFB002208218A48C2
:1003DC0001F035FB00221021874801F030FB01228F
:1003EC002021854801F02BFB00224021824801F09E
:1003FC0026FBFCE0002201217F4801F020FB0022BB
:10040C0002217D4801F01BFB002204217A4801F0F7
:10041C0016FB00220821784801F011FB0122102163
:10042C00754801F00CFB01222021734801F007FBF9
:10043C0000224021704801F002FBD8E0012201218A
:10044C006D4801F0FCFA002202216B4801F0F7FA2A
:10045C0000220421684801F0F2FA012208216648C2
:10046C0001F0EDFA01221021634801F0E8FA0022B4
:10047C002021614801F0E3FA002240215E4801F09E
:10048C00DEFAB4E0002201215B4801F0D8FA012227
:10049C000221594801F0D3FA00220421564801F0F8
:1004AC00CEFA00220821544801F0C9FA0122102189
:1004BC00514801F0C4FA002220214F4801F0BFFA44
:1004CC00002240214C4801F0BAFA90E000220121B0
:1004DC00494801F0B4FA01220221474801F0AFFA71
:1004EC0000220421444801F0AAFA002208214248C3
:1004FC0001F0A5FA002210213F4801F0A0FA0022D9
:10050C0020213D4801F09BFA002240213A4801F09D
:10051C0096FA6CE000220121374801F090FA002293
:10052C000221354801F08BFA00220421324801F0F7
:10053C0086FA01220821304801F081FA01221021AB
:10054C002D4801F07CFA012220212B4801F077FA8A
:10055C0001224021284801F072FA48E000220121D2
:10056C00254801F06CFA00220221234801F067FAB9
:10057C0000220421204801F062FA002208211E48C2
:10058C0001F05DFA002210211B4801F058FA0022FC
:10059C002021194801F053FA00224021164801F09D
:1005AC004EFA24E000220121134801F048FA0022FF
:1005BC000221114801F043FA002204210E4801F0F7
:1005CC003EFA002208210C4801F039FA01221021D0
:1005DC00094801F034FA00222021074801F02FFAD3
:1005EC0000224021044801F02AFA00E000BF00BFBD
:1005FC000837BD4680BD00BF000C014080B500AF80
:10060C00884B1B68013B042B00F2698101A252F854
:10061C0023F000BF35060008890600081307000800
:10062C00A50700085908000800F076FD7E4B1B68F2
:10063C007E4A13607E4B1B687E4A1360794B022204
:10064C001A607D4B01221A60794B1B68642202FBF5
:10065C0003F31946002000F077FB0721012000F07E
:10066C0073FB0521022000F06FFB1121032000F029
:10067C006BFB1121042000F067FB31E100F03AFC28
:10068C006E4B1B68012B0FD16D4B1B68642202FB58
:10069C0003F31946002000F057FB624B03221A604B
:1006AC00674B1B68634A1360644B5B68012B0DD16D
:1006BC006421012000F048FB5C4B1B68013B5B4A4A
:1006CC0013605C4B1B68013B5A4A13600020FFF718
:1006DC0037FD0346012B13D1524B0B221A60564B9C
:1006EC0002221A600521032000F02EFB4E4B1B68E2
:1006FC00544A13604C4B1B68534A136000F00CFDBA
:10070C0000F056FDECE000F01DFC4C4B1B68012B7F
:10071C0013D1474B1B68642202FB03F319460020DC
:10072C0000F012FB3F4B04221A60414B1B683F4AFE
:10073C0013603D4B1B683F4A1360404B5B68012BB9
:10074C000DD16421012000F0FFFA384B1B68013BEE
:10075C00364A1360374B1B68013B364A1360002046
:10076C00FFF7EEFC0346012B13D12E4B0B221A6024
:10077C00314B02221A600521032000F0E5FA2A4BC6
:10078C001B68304A1360284B1B682F4A136000F01B
:10079C00C3FC00F00DFDA3E000F0FCFB274B1B6835
:1007AC00012B0FD1264B1B68642202FB03F3194665
:1007BC00002000F0C9FA1B4B05221A60204B1B6865
:1007CC001A4A13601D4B5B68012B0DD1642101206B
:1007DC0000F0BAFA154B1B68013B144A1360154B19
:1007EC001B68013B134A13600020FFF7A9FC03466A
:1007FC00012B13D10B4B0B221A600F4B02221A60E8
:10080C000521032000F0A0FA074B1B680D4A13606A
:10081C00054B1B680C4A136000F07EFC00F0C8FC12
:10082C005EE000BF2400002028000020840000208F
:10083C00300000208800002080000020F8000020FC
:10084C002C0000208C0000209000002000F0CAFB3F
:10085C00244B1B68012B13D1234B1B68642202FB16
:10086C0003F31946002000F06FFA204B02221A60A5
:10087C001F4B1B681F4A13601B4B1B681E4A1360DF
:10088C00184B5B68012B0DD16421012000F05CFA40
:10089C00184B1B68013B174A1360174B1B68013B35
:1008AC00154A13600020FFF74BFC0346012B13D1B4
:1008BC000E4B0B221A60114B02221A6005210320E9
:1008CC0000F042FA0A4B1B680D4A1360084B1B6878
:1008DC000C4A136000F020FC00F06AFC00E000BF42
:1008EC0000BF80BDF8000020300000202400002054
:1008FC0028000020840000208800002080000020B8
:10090C008C0000209000002080B500AF7C4B1B6851
:10091C000D2B00F09E800D2B00F3EE800B2B02D0E4
:10092C000C2B4BD0E8E0774BDB68012B05D1192160
:10093C00032000F009FA00F07DFB0120FFF700FC1A
:10094C000346012B04D1704B1B6801336E4A1360B4
:10095C000120FFF70FFC0346012B0CD1694B1B69DF
:10096C00012B08D13221042000F0EEF9664B1B68F4
:10097C000133654A13600220FFF7E2FB0346012BAB
:10098C0003D1614B1B68614A13600020FFF7D8FB51
:10099C000346012B0FD15A4B0C221A605C4B0322DD
:1009AC001A605C4B1B68584A13605A4B1B685A4AB6
:1009BC00136000F0B1FB00F0FBFB9EE0514BDB68D9
:1009CC00012B05D11921032000F0BEF900F07EFBAC
:1009DC000120FFF7B5FB0346012B04D14A4B1B68E2
:1009EC000133494A13600120FFF7C4FB0346012B76
:1009FC000CD1444B1B69012B08D13221042000F08F
:100A0C00A3F9414B1B6801333F4A13600220FFF7E7
:100A1C0097FB0346012B03D13B4B1B683E4A1360EB
:100A2C000020FFF78DFB0346012B0FD1344B0D2219
:100A3C001A60374B04221A60384B1B68324A136019
:100A4C00364B1B68364A136000F066FB00F0B0FBB7
:100A5C0053E02C4BDB68012B05D11921032000F04E
:100A6C0073F900F00DFB0120FFF76AFB0346012B25
:100A7C0004D1254B1B680133234A13600120FFF777
:100A8C0079FB0346012B0CD11E4B1B69012B08D1A2
:100A9C003221042000F058F91B4B1B6801331A4A11
:100AAC0013600220FFF74CFB0346012B03D1164BBE
:100ABC001B681B4A13600020FFF742FB0346012B07
:100ACC0017D10F4B01221A60134B1A68144B1B6879
:100ADC001A440E4B1B689A420BD10C4B1B68114AE3
:100AEC0013600D4B1B680B4A13600D4B1B680B4AB4
:100AFC00136000F05DFB00E000BF00BF80BD00BFD5
:100B0C0024000020F80000208C0000209000002021
:100B1C008000002030000020980000202C000020D5
:100B2C00940000202800002080B500AF00F086FC67
:100B3C0000F00EF800F094F800F046F8034801F0CD
:100B4C00DBFBFFF75BFDFFF7DFFEFAE7B0000020F1
:100B5C0080B590B000AF07F1180328220021184689
:100B6C0001F07AFF3B1D00221A605A609A60DA602D
:100B7C001A610223BB610123BB621023FB620023B9
:100B8C007B6307F11803184600F08AFF0346002B1D
:100B9C0001D000F0D3F80F237B600023BB6000234F
:100BAC00FB6000233B6100237B613B1D0021184649
:100BBC0001F0F6F90346002B01D000F0BFF800BF9E
:100BCC004037BD4680BD000080B586B000AF07F150
:100BDC00080300221A605A609A60DA603B460022D1
:100BEC001A605A601D4B4FF080421A601B4B41F645
:100BFC003F725A60194B00229A60184B0922DA6036
:100C0C00164B00221A61154B00229A61134801F011
:100C1C0023FB0346002B01D000F090F84FF48053D7
:100C2C00BB6007F1080319460C4801F0A1FC034610
:100C3C00002B01D000F082F800233B6000237B6086
:100C4C003B461946054801F079FE0346002B01D0BE
:100C5C0000F074F800BF1837BD4680BDB00000200E
:100C6C0080B586B000AF07F1080300221A605A6005
:100C7C009A60DA60284B9B69274A43F0040393611E
:100C8C00254B9B6903F004037B607B68224B9B69BB
:100C9C00214A43F0080393611F4B9B6903F008033F
:100CAC003B603B68002240F2FE711C4800F0C7FE1E
:100CBC0000227F211A4800F0C2FE40F2FE73BB6096
:100CCC000123FB6000233B6102237B6107F10803D6
:100CDC001946124800F022FD7F23BB600123FB6004
:100CEC0000233B6102237B6107F1080319460C4882
:100CFC0000F014FD4FF46073BB600023FB60012314
:100D0C003B6107F108031946054800F007FD00BFD9
:100D1C001837BD4680BD00BF0010024000080140DE
:100D2C00000C014080B582B000AF7860FFF73CFA50
:100D3C0000F022F800BF0837BD4680BD80B400AF7C
:100D4C0072B600BFFEE7000080B483B000AF7860DD
:100D5C00396007497B683A6841F82320054A7B686B
:100D6C00002142F8231000BF0C37BD4680BC7047F1
:100D7C000C010020F800002080B483B000AF0023E9
:100D8C007B601CE0124A7B6852F82330002B13DD89
:100D9C000F4A7B6852F823305A1E0D497B6841F884
:100DAC0023200B4A7B6852F82330002B04DC094AC1
:100DBC007B68012142F823107B6801337B607B68E0
:100DCC00042BDFDD00BF00BF0C37BD4680BC704775
:100DDC000C010020F800002080B485B000AF154B4A
:100DEC009B69144A43F001039361124B9B6903F016
:100DFC000103BB60BB680F4BDB690E4A43F08053A9
:100E0C00D3610C4BDB6903F080537B607B680A4B2E
:100E1C005B68FB60FB6823F0E063FB60FB6843F0FE
:100E2C008063FB60044AFB68536000BF1437BD4607
:100E3C0080BC7047001002400000014080B584B0B7
:100E4C0000AF78607B681B68B3F1804F13D10C4BFB
:100E5C00DB690B4A43F00103D361094BDB6903F0F7
:100E6C000103FB60FB68002200211C2000F01FFC2A
:100E7C001C2000F038FC00BF1037BD4680BD00BF01
:100E8C000010024080B400AFFEE780B400AFFEE774
:100E9C0080B400AFFEE780B400AFFEE780B400AFD3
:100EAC00FEE780B400AF00BFBD4680BC704780B485
:100EBC0000AF00BFBD4680BC704780B400AF00BF20
:100ECC00BD4680BC704780B500AF00F0FDFA00BF96
:100EDC0080BD000080B500AF024801F059FA00BF98
:100EEC0080BD00BFB000002080B400AF00BFBD4685
:100EFC0080BC704780B500AF01222021104800F063
:100F0C009EFD002240210E4800F099FD0022802118
:100F1C000B4800F094FD00224FF48071084800F05B
:100F2C008EFD00224FF40071054800F088FD01226F
:100F3C004FF48061024800F082FD00BF80BD00BF0D
:100F4C000008014080B500AF01222021104800F0BC
:100F5C0076FD002240210E4800F071FD0022802118
:100F6C000B4800F06CFD00224FF48071084800F033
:100F7C0066FD01224FF40071054800F060FD00226F
:100F8C004FF48061024800F05AFD00BF80BD00BFE5
:100F9C000008014080B500AF00222021104800F06D
:100FAC004EFD002240210E4800F049FD0122802117
:100FBC000B4800F044FD01224FF48071084800F00A
:100FCC003EFD00224FF40071054800F038FD002270
:100FDC004FF48061024800F032FD00BF80BD00BFBD
:100FEC000008014080B500AF00222021104800F01D
:100FFC0026FD012240210E4800F021FD0022802117
:10100C000B4800F01CFD01224FF48071084800F0E1
:10101C0016FD00224FF40071054800F010FD00226F
:10102C004FF48061024800F00AFD00BF80BD00BF94
:10103C000008014080B500AF2021104800F017FDDA
:10104C00002240210D4800F0FAFC002280210B48C0
:10105C0000F0F5FC4FF48071084800F008FD002208
:10106C004FF40071054800F0EAFC00224FF4806157
:10107C00024800F0E4FC00BF80BD00BF0008014046
:10108C0080B500AF002220210F4800F0D8FC402191
:10109C000D4800F0ECFC002280210B4800F0CFFC46
:1010AC0000224FF48071084800F0C9FC4FF4007125
:1010BC00054800F0DCFC00224FF48061024800F08F
:1010CC00BEFC00BF80BD00BF0008014080B500AF72
:1010DC00002220210F4800F0B2FC002240210D48D4
:1010EC0000F0ADFC80210B4800F0C1FC00224FF455
:1010FC008071084800F0A3FC00224FF400710548F1
:10110C0000F09DFC4FF48061024800F0B0FC00BF81
:10111C0080BD00BF0008014080B500AF0022202137
:10112C00214800F08CFC00224FF480711E4800F026
:10113C0086FC002240211C4800F081FC00224FF468
:10114C000071194800F07BFC00228021164800F049
:10115C0076FC00224FF48061134800F070FC0122F1
:10116C000121124800F06BFC012202210F4800F013
:10117C0066FC012204210D4800F061FC01220821CB
:10118C000A4800F05CFC01221021084800F057FCD2
:10119C0001222021054800F052FC01224021034885
:1011AC0000F04DFC00BF80BD00080140000C014068
:1011BC0080B500AF434B9B68012B40F08180424BC4
:1011CC001B68012B31D1414B1B68414A82FB031236
:1011DC009210DB17D31A3F4A13603C4B19683C4BF7
:1011EC0083FB01239A10CB17D21A13469B0013448E
:1011FC005B00CA1A374B5A60374B1B68344A82FB68
:10120C0003129210DB17D31A324A9360324B1968CF
:10121C002F4B83FB01239A10CB17D21A13469B003A
:10122C0013445B00CA1A2B4BDA60274B1B68012B4B
:10123C0031DD2A4B1B68264A82FB03129210DB1706
:10124C00D31A244A1360254B1968214B83FB0123C5
:10125C009A10CB17D21A13469B0013445B00CA1A80
:10126C001C4B5A60184B1B68194A82FB03129210D4
:10127C00DB17D31A174A9360134B1968144B83FB73
:10128C0001239A10CB17D21A13469B0013445B0010
:10129C00CA1A104BDA6019210220FFF755FD104BCA
:1012AC001B685A1C0E490A60184600F01DF80C4BBE
:1012BC001A680C4B1B689A4202DB094B00221A601D
:1012CC0000BF80BDF80000208000002084000020BA
:1012DC0067666666A0000020880000208C00002055
:1012EC009C0000208C2A000880B582B000AF78608A
:1012FC007B68032B72D801A252F823F01913000853
:10130C004D13000881130008B5130008364B1B68F9
:10131C001846FEF7E3FF00220221344800F08FFB51
:10132C0001220421314800F08AFB012208212F48B8
:10133C0000F085FB012210212C4800F080FB4EE0D0
:10134C00294B5B681846FEF7C9FF0122022127488A
:10135C0000F075FB00220421244800F070FB0122F0
:10136C000821224800F06BFB012210211F4800F0DD
:10137C0066FB34E01C4B9B681846FEF7AFFF01225E
:10138C0002211A4800F05BFB01220421174800F0EF
:10139C0056FB00220821154800F051FB01221021B8
:1013AC00124800F04CFB1AE00F4BDB681846FEF7B6
:1013BC0095FF012202210D4800F041FB012204217E
:1013CC000A4800F03CFB01220821084800F037FBDA
:1013DC0000221021054800F032FB00E000BF00BFE6
:1013EC000837BD4680BD00BFA000002000080140AA
:1013FC00FFF77AFD0B480C490C4A002302E0D45845
:10140C00C4500433C4188C42F9D3094A094C002344
:10141C0001E013600432A242FBD301F0F9FAFFF7AA
:10142C0083FB70470000002040000020BC2A00080D
:10143C004000002024010020FEE7000080B500AF32
:10144C00084B1B68074A43F010031360032000F09D
:10145C0023F90F2000F008F8FFF7BEFC0023184614
:10146C0080BD00BF0020024080B582B000AF786024
:10147C00124B1A68124B1B7819464FF47A73B3FB54
:10148C00F1F3B2FBF3F3184600F03BF90346002BE3
:10149C0001D001230EE07B680F2B0AD8002279685B
:1014AC004FF0FF3000F003F9064A7B68136000230D
:1014BC0000E0012318460837BD4680BD34000020EB
:1014CC003C0000203800002080B400AF054B1B7896
:1014DC001A46054B1B681344034A136000BFBD46F4
:1014EC0080BC70473C0000202001002080B400AF7D
:1014FC00024B1B681846BD4680BC7047200100207B
:10150C0080B485B000AF78607B6803F00703FB60A4
:10151C000C4BDB68BB60BA684FF6FF031340BB6033
:10152C00FB681A02BB68134343F0BF6343F40033F8
:10153C00BB60044ABB68D36000BF1437BD4680BC97
:10154C00704700BF00ED00E080B400AF044BDB68D7
:10155C001B0A03F007031846BD4680BC704700BF4A
:10156C0000ED00E080B483B000AF0346FB7197F947
:10157C000730002B0BDBFB7903F01F02064997F9B0
:10158C0007305B09012000FA02F241F8232000BF6A
:10159C000C37BD4680BC704700E100E080B483B0DE
:1015AC0000AF03463960FB7197F90730002B0ADB5B
:1015BC003B68DAB20C4997F907301201D2B20B44EE
:1015CC0083F800230AE03B68DAB20849FB7903F0A0
:1015DC000F03043B1201D2B20B441A7600BF0C3736
:1015EC00BD4680BC704700BF00E100E000ED00E0AC
:1015FC0080B489B000AFF860B9607A60FB6803F022
:10160C000703FB61FB69C3F10703042B28BF042309
:10161C00BB61FB690433062B02D9FB69033B00E079
:10162C0000237B614FF0FF32BB6902FA03F3DA430C
:10163C00BB681A407B699A404FF0FF317B6901FA15
:10164C0003F3D9437B680B40134318462437BD463C
:10165C0080BC704780B582B000AF78607B68013B7E
:10166C00B3F1807F01D301230FE00A4A7B68013B71
:10167C0053600F214FF0FF30FFF790FF054B002216
:10168C009A60044B07221A60002318460837BD469F
:10169C0080BD00BF10E000E080B582B000AF786084
:1016AC007868FFF72DFF00BF0837BD4680BD80B5B9
:1016BC0086B000AF0346B9607A60FB7300237B6190
:1016CC00FFF742FF78617A68B9687869FFF790FF95
:1016DC00024697F90F3011461846FFF75FFF00BF1F
:1016EC001837BD4680BD80B582B000AF0346FB7194
:1016FC0097F907301846FFF735FF00BF0837BD468E
:10170C0080BD80B582B000AF78607868FFF7A2FF2B
:10171C00034618460837BD4680BD000080B48BB028
:10172C0000AF7860396000237B6200233B6248E1A4
:10173C0001227B6A02FA03F3FB613B681B68FA69BE
:10174C001340BB61BA69FB699A4240F037813B6830
:10175C005B68A34A93425ED0A14A934275D8A14AD2
:10176C00934258D09F4A93426FD89F4A934252D08B
:10177C009D4A934269D89D4A93424CD09B4A9342CE
:10178C0063D89B4A934246D0994A93425DD8122B18
:10179C002AD8122B59D801A252F823F0231800088A
:1017AC00FD1700080F1800085118000857180008FA
:1017BC005718000857180008571800085718000841
:1017CC005718000857180008571800085718000831
:1017DC005718000857180008571800085718000821
:1017EC000518000819180008824A934213D02CE0FF
:1017FC003B68DB683B6229E03B68DB6804333B6297
:10180C0024E03B68DB6808333B621FE03B68DB6825
:10181C000C333B621AE03B689B68002B02D104231B
:10182C003B6213E03B689B68012B05D108233B62AC
:10183C007B68FA691A6109E008233B627B68FA69E4
:10184C005A6103E000233B6200E000BFBB69FF2B41
:10185C0001D87B6801E07B6804337B61BB69FF2B9B
:10186C0002D87B6A9B0002E07B6A083B9B003B61D1
:10187C007B691A680F213B6901FA03F3DB431A40B9
:10188C00396A3B6901FA03F31A437B691A603B68B6
:10189C005B6803F08053002B00F09080564B9B69E3
:1018AC00554A43F001039361534B9B6903F00103C9
:1018BC00BB60BB68514A7B6A9B08023352F82330E9
:1018CC00FB607B6A03F003039B000F2202FA03F315
:1018DC00DB43FA681340FB607B68494A93420DD0A6
:1018EC007B68484A934207D07B68474A934201D1B0
:1018FC00022304E0032302E0012300E000237A6AC0
:10190C0002F0030292009340FA681343FB603B49D8
:10191C007B6A9B080233FA6841F823203B685B68BA
:10192C0003F48013002B06D0384B9A683749BB69F7
:10193C0013438B6006E0354B9A68BB69DB43334934
:10194C0013408B603B685B6803F40013002B06D0DC
:10195C002E4BDA682D49BB691343CB6006E02B4B49
:10196C00DA68BB69DB4329491340CB603B685B6891
:10197C0003F40033002B06D0244B5A682349BB696F
:10198C0013434B6006E0214B5A68BB69DB431F498C
:10199C0013404B603B685B6803F48033002B06D02C
:1019AC001A4B1A681949BB6913430B6006E0174BB5
:1019BC001A68BB69DB43154913400B607B6A013322
:1019CC007B623B681A687B6A22FA03F3002B7FF474
:1019DC00AFAE00BF00BF2C37BD4680BC704700BF08
:1019EC000000321000003110000022100000211005
:1019FC000000121000001110001002400000014005
:101A0C0000080140000C014000100140000401409E
:101A1C0080B485B000AF78600B467B807B689A6899
:101A2C007B881340002B02D00123FB7301E00023C1
:101A3C00FB73FB7B18461437BD4680BC704780B4E3
:101A4C0083B000AF78600B467B8013467B707B784D
:101A5C00002B03D07A887B681A6103E07B881A0418
:101A6C007B681A6100BF0C37BD4680BC704780B4E0
:101A7C0085B000AF78600B467B807B68DB68FB60D1
:101A8C007A88FB6813401A04FB68D9437B880B40A7
:101A9C001A437B681A6100BF1437BD4680BC70477F
:101AAC0080B586B000AF78607B68002B01D1012334
:101ABC006CE27B681B6803F00103002B00F087804D
:101ACC00924B5B6803F00C03042B0CD08F4B5B68C0
:101ADC0003F00C03082B12D18C4B5B6803F480339E
:101AEC00B3F5803F0BD1894B1B6803F40033002BFB
:101AFC006CD07B685B68002B68D1012346E27B6865
:101B0C005B68B3F5803F06D1804B1B687F4A43F47A
:101B1C00803313602EE07B685B68002B0CD17B4B11
:101B2C001B687A4A23F480331360784B1B68774A1E
:101B3C0023F4802313601DE07B685B68B3F5A02F52
:101B4C000CD1724B1B68714A43F4802313606F4BAA
:101B5C001B686E4A43F4803313600BE06B4B1B68BD
:101B6C006A4A23F480331360684B1B68674A23F47A
:101B7C00802313607B685B68002B13D0FFF7B6FCE7
:101B8C00386108E0FFF7B2FC02463B69D31A642BBC
:101B9C0001D90323FAE15D4B1B6803F40033002BDE
:101BAC00F0D014E0FFF7A2FC386108E0FFF79EFCD0
:101BBC0002463B69D31A642B01D90323E6E1534B4C
:101BCC001B6803F40033002BF0D100E000BF7B68EE
:101BDC001B6803F00203002B63D04C4B5B6803F0D3
:101BEC000C03002B0BD0494B5B6803F00C03082B48
:101BFC001CD1464B5B6803F48033002B16D1434B4E
:101C0C001B6803F00203002B05D07B681B69012BBA
:101C1C0001D00123BAE13D4B1B6823F0F8027B682D
:101C2C005B69DB00394913430B603AE07B681B6945
:101C3C00002B20D0364B01221A60FFF757FC38617D
:101C4C0008E0FFF753FC02463B69D31A022B01D97B
:101C5C0003239BE12D4B1B6803F00203002BF0D0F8
:101C6C002A4B1B6823F0F8027B685B69DB00274971
:101C7C0013430B6015E0264B00221A60FFF736FC6D
:101C8C00386108E0FFF732FC02463B69D31A022B9D
:101C9C0001D903237AE11D4B1B6803F00203002BCF
:101CAC00F0D17B681B6803F00803002B3AD07B68EB
:101CBC009B69002B19D0174B01221A60FFF716FCF9
:101CCC00386108E0FFF712FC02463B69D31A022B7D
:101CDC0001D903235AE10D4B5B6A03F00203002B7D
:101CEC00F0D0012000F09AFA1CE00A4B00221A6096
:101CFC00FFF7FCFB38610FE0FFF7F8FB02463B698E
:101D0C00D31A022B08D9032340E100BF0010024074
:101D1C0000004242800442429E4B5B6A03F0020385
:101D2C00002BE9D17B681B6803F00403002B00F047
:101D3C00A6800023FB75974BDB6903F08053002BC7
:101D4C000DD1944BDB69934A43F08053D361914B93
:101D5C00DB6903F08053BB60BB680123FB758E4BC2
:101D6C001B6803F48073002B18D18B4B1B688A4AB9
:101D7C0043F480731360FFF7B9FB386108E0FFF799
:101D8C00B5FB02463B69D31A642B01D90323FDE052
:101D9C00814B1B6803F48073002BF0D07B68DB68ED
:101DAC00012B06D17B4B1B6A7A4A43F00103136269
:101DBC002DE07B68DB68002B0CD1764B1B6A754AD7
:101DCC0023F001031362734B1B6A724A23F0040362
:101DDC0013621CE07B68DB68052B0CD16D4B1B6A16
:101DEC006C4A43F0040313626A4B1B6A694A43F062
:101DFC00010313620BE0674B1B6A664A23F0010375
:101E0C001362644B1B6A634A23F0040313627B68FE
:101E1C00DB68002B15D0FFF769FB38610AE0FFF790
:101E2C0065FB02463B69D31A41F28832934201D9D1
:101E3C000323ABE0574B1B6A03F00203002BEED0DD
:101E4C0014E0FFF753FB38610AE0FFF74FFB024643
:101E5C003B69D31A41F28832934201D9032395E0AE
:101E6C004C4B1B6A03F00203002BEED1FB7D012BC4
:101E7C0005D1484BDB69474A23F08053D3617B681B
:101E8C00DB69002B00F08180424B5B6803F00C0394
:101E9C00082B61D07B68DB69022B46D13F4B0022BB
:101EAC001A60FFF723FB386108E0FFF71FFB0246BF
:101EBC003B69D31A022B01D9032367E0354B1B680E
:101ECC0003F00073002BF0D17B681B6AB3F5803FE5
:101EDC0008D1304B5B6823F400327B689B682D493A
:101EEC0013434B602B4B5B6823F474127B68196AA9
:101EFC007B685B6A0B43274913434B60274B0122DA
:101F0C001A60FFF7F3FA386108E0FFF7EFFA0246C0
:101F1C003B69D31A022B01D9032337E01D4B1B68F5
:101F2C0003F00073002BF0D02FE01C4B00221A6042
:101F3C00FFF7DCFA386108E0FFF7D8FA02463B6994
:101F4C00D31A022B01D9032320E0124B1B6803F098
:101F5C000073002BF0D118E07B68DB69012B01D1F9
:101F6C00012313E00B4B5B68FB60FB6803F48032CE
:101F7C007B681B6A9A4206D1FB6803F470127B687B
:101F8C005B6A9A4201D0012300E0002318461837FF
:101F9C00BD4680BD0010024000700040600042420F
:101FAC0080B584B000AF786039607B68002B01D1BC
:101FBC000123D0E06A4B1B6803F007033A689A428E
:101FCC0010D9674B1B6823F0070265493B68134324
:101FDC000B60634B1B6803F007033A689A4201D00D
:101FEC000123B8E07B681B6803F00203002B20D0B0
:101FFC007B681B6803F00403002B05D0594B5B680E
:10200C00584A43F4E06353607B681B6803F0080391
:10201C00002B05D0534B5B68524A43F4605353601A
:10202C00504B5B6823F0F0027B689B684D4913436F
:10203C004B607B681B6803F00103002B40D07B686E
:10204C005B68012B07D1474B1B6803F40033002B53
:10205C0015D101237FE07B685B68022B07D1414BD4
:10206C001B6803F00073002B09D1012373E03D4B77
:10207C001B6803F00203002B01D101236BE0394BE9
:10208C005B6823F003027B685B68364913434B6043
:10209C00FFF72CFAF8600AE0FFF728FA0246FB6813
:1020AC00D31A41F28832934201D9032353E02D4BCA
:1020BC005B6803F00C027B685B689B009A42EBD177
:1020CC00274B1B6803F007033A689A4210D2244B43
:1020DC001B6823F0070222493B6813430B60204B1B
:1020EC001B6803F007033A689A4201D0012332E0DF
:1020FC007B681B6803F00403002B08D0194B5B684A
:10210C0023F4E0627B68DB68164913434B607B6801
:10211C001B6803F00803002B09D0124B5B6823F4F7
:10212C0060527B681B69DB000E4913434B6000F067
:10213C0021F802460B4B5B681B0903F00F030A499D
:10214C00CB5C22FA03F3094A1360094B1B6818464F
:10215C00FFF78AF9002318461037BD4680BD00BF33
:10216C000020024000100240902A00083400002099
:10217C003800002080B487B000AF0023FB60002340
:10218C00BB6000237B6100237B6000233B611E4B03
:10219C005B68FB60FB6803F00C03042B02D0082B7C
:1021AC0003D027E0194B3B6127E0FB689B0C03F045
:1021BC000F03174AD35C7B60FB6803F48033002B5E
:1021CC0010D0114B5B685B0C03F00103114AD35C1C
:1021DC00BB607B680D4A02FB03F2BB68B2FBF3F3F6
:1021EC007B6104E07B680C4A02FB03F37B617B6937
:1021FC003B6102E0054B3B6100BF3B6918461C3755
:10220C00BD4680BC704700BF0010024000127A002F
:10221C00A02A0008B02A000800093D0080B485B04F
:10222C0000AF78600A4B1B680A4AA2FB03235B0AC7
:10223C007A6802FB03F3FB6000BFFB685A1EFA606E
:10224C00002BF9D100BF00BF1437BD4680BC7047CE
:10225C0034000020D34D621080B582B000AF78609E
:10226C007B68002B01D1012341E07B6893F83D3062
:10227C00DBB2002B06D17B68002283F83C20786807
:10228C00FEF7DCFD7B68022283F83D207B681A6830
:10229C007B6804331946104600F056FA7B6801221D
:1022AC0083F846207B68012283F83E207B6801225C
:1022BC0083F83F207B68012283F840207B68012251
:1022CC0083F841207B68012283F842207B6801223D
:1022DC0083F843207B68012283F844207B68012229
:1022EC0083F845207B68012283F83D2000231846A3
:1022FC000837BD4680BD000080B485B000AF786063
:10230C007B6893F83D30DBB2012B01D0012335E023
:10231C007B68022283F83D207B681B68DA687B6847
:10232C001B6842F00102DA607B681B68164A934214
:10233C0009D07B681B68B3F1804F04D07B681B68A5
:10234C00124A934211D17B681B689B6803F0070308
:10235C00FB60FB68062B10D07B681B681A687B68D7
:10236C001B6842F001021A6007E07B681B681A6860
:10237C007B681B6842F001021A6000231846143770
:10238C00BD4680BC704700BF002C014000040040DB
:10239C0080B584B000AF78607B681B68DB68FB603D
:1023AC007B681B681B69BB60BB6803F00203002BD6
:1023BC0020D0FB6803F00203002B1BD07B681B684A
:1023CC006FF002021A617B6801221A777B681B6826
:1023DC009B6903F00303002B03D0786800F098F995
:1023EC0005E0786800F08BF9786800F09AF97B6862
:1023FC0000221A77BB6803F00403002B20D0FB6883
:10240C0003F00403002B1BD07B681B686FF00402E5
:10241C001A617B6802221A777B681B689B6903F43C
:10242C004073002B03D0786800F072F905E07868EF
:10243C0000F065F9786800F074F97B6800221A776F
:10244C00BB6803F00803002B20D0FB6803F00803E3
:10245C00002B1BD07B681B686FF008021A617B682D
:10246C0004221A777B681B68DB6903F00303002BDB
:10247C0003D0786800F04CF905E0786800F03FF97B
:10248C00786800F04EF97B6800221A77BB6803F07D
:10249C001003002B20D0FB6803F01003002B1BD083
:1024AC007B681B686FF010021A617B6808221A7730
:1024BC007B681B68DB6903F44073002B03D07868DE
:1024CC0000F026F905E0786800F019F9786800F05A
:1024DC0028F97B6800221A77BB6803F00103002BF4
:1024EC000CD0FB6803F00103002B07D07B681B6842
:1024FC006FF001021A617868FEF714FCBB6803F0F8
:10250C008003002B0CD0FB6803F08003002B07D05A
:10251C007B681B686FF080021A61786800F06FFAB4
:10252C00BB6803F04003002B0CD0FB6803F04003A6
:10253C00002B07D07B681B686FF040021A6178682B
:10254C0000F0F8F8BB6803F02003002B0CD0FB68FC
:10255C0003F02003002B07D07B681B686FF0200270
:10256C001A61786800F042FA00BF1037BD4680BD92
:10257C0080B584B000AF786039600023FB737B6852
:10258C0093F83C30012B01D10223B4E07B6801228B
:10259C0083F83C207B68022283F83D207B681B6813
:1025AC009B68BB60BB6823F07703BB60BB6823F4FC
:1025BC007F43BB607B681B68BA689A603B681B688A
:1025CC00B3F5005F3ED0B3F5005F00F28780B3F542
:1025DC00805F00F08680B3F5805F7FD8702B1AD0B7
:1025EC00702B7BD8602B50D0602B77D8502B3CD0E5
:1025FC00502B73D8402B58D0402B6FD8302B64D035
:10260C00302B6BD8202B60D0202B67D8002B5CD0C4
:10261C00102B5AD062E07B6818683B6899683B685D
:10262C005A683B68DB6800F06AF97B681B689B683A
:10263C00BB60BB6843F07703BB607B681B68BA6800
:10264C009A604FE07B6818683B6899683B685A68E9
:10265C003B68DB6800F053F97B681B689A687B6801
:10266C001B6842F480429A603CE07B6818683B68C7
:10267C0059683B68DB681A4600F0CAF87B681B682F
:10268C005021184600F021F92CE07B6818683B6853
:10269C0059683B68DB681A4600F0E8F87B681B68F1
:1026AC006021184600F011F91CE07B6818683B6843
:1026BC0059683B68DB681A4600F0AAF87B681B680F
:1026CC004021184600F001F90CE07B681A683B6861
:1026DC001B681946104600F0F8F803E00123FB7361
:1026EC0000E000BF7B68012283F83D207B6800225C
:1026FC0083F83C20FB7B18461037BD4680BD80B468
:10270C0083B000AF786000BF0C37BD4680BC70470B
:10271C0080B483B000AF786000BF0C37BD4680BC7E
:10272C00704780B483B000AF786000BF0C37BD46F3
:10273C0080BC704780B483B000AF786000BF0C37AA
:10274C00BD4680BC7047000080B485B000AF786097
:10275C0039607B681B68FB607B682B4A934207D00F
:10276C007B68B3F1804F03D07B68284A934208D131
:10277C00FB6823F07003FB603B685B68FA681343EB
:10278C00FB607B68204A934207D07B68B3F1804F93
:10279C0003D07B681D4A934208D1FB6823F4407335
:1027AC00FB603B68DB68FA681343FB60FB6823F053
:1027BC0080023B685B691343FB607B68FA681A60B4
:1027CC003B689A687B68DA623B681A687B689A6235
:1027DC007B680D4A934203D13B681A697B681A6384
:1027EC007B6801225A617B681B6903F00103002B93
:1027FC0005D07B681B6923F001027B681A6100BF5E
:10280C001437BD4680BC7047002C014000040040CA
:10281C0080B487B000AFF860B9607A60FB681B6A5F
:10282C007B61FB681B6A23F00102FB681A62FB6880
:10283C009B693B613B6923F0F0033B617B681B01A7
:10284C003A6913433B617B6923F00A037B617A6924
:10285C00BB6813437B61FB683A699A61FB687A69D0
:10286C001A6200BF1C37BD4680BC704780B487B06D
:10287C0000AFF860B9607A60FB681B6A7B61FB682B
:10288C001B6A23F01002FB681A62FB689B693B61B0
:10289C003B6923F470433B617B681B033A69134328
:1028AC003B617B6923F0A0037B61BB681B017A69E8
:1028BC0013437B61FB683A699A61FB687A691A6217
:1028CC0000BF1C37BD4680BC704780B485B000AFDC
:1028DC00786039607B689B68FB60FB6823F0700351
:1028EC00FB603A68FB68134343F00703FB607B68AB
:1028FC00FA689A6000BF1437BD4680BC704780B43C
:10290C0087B000AFF860B9607A603B60FB689B6889
:10291C007B617B6923F47F437B613B681A027B6894
:10292C001A43BB6813437A6913437B61FB687A696A
:10293C009A6000BF1C37BD4680BC704780B485B020
:10294C0000AF786039607B6893F83C30012B01D183
:10295C00022341E07B68012283F83C207B68022241
:10296C0083F83D207B681B685B68FB607B681B6899
:10297C009B68BB60FB6823F07003FB603B681B68C3
:10298C00FA681343FB607B681B68FA685A607B68C3
:10299C001B68144A934209D07B681B68B3F1804FC3
:1029AC0004D07B681B68104A93420CD1BB6823F09F
:1029BC008003BB603B685B68BA681343BB607B6891
:1029CC001B68BA689A607B68012283F83D207B689B
:1029DC00002283F83C20002318461437BD4680BCE7
:1029EC00704700BF002C01400004004080B483B04D
:1029FC0000AF786000BF0C37BD4680BC704780B418
:102A0C0083B000AF786000BF0C37BD4680BC704708
:102A1C0070B500260C4D0D4C641BA410A64209D1B8
:102A2C0000F022F800260A4D0A4C641BA410A642A2
:102A3C0005D170BD55F8043B98470136EEE755F8C3
:102A4C00043B98470136F2E7B42A0008B42A000880
:102A5C00B42A0008B82A000803460244934200D165
:102A6C00704703F8011BF9E7F8B500BFF8BC08BCC8
:102A7C009E467047F8B500BFF8BC08BC9E46704730
:102A8C00040000000000000000000000010203042C
:102A9C000607080902030405060708090A0B0C0DB2
:082AAC000E0F101001020000E2
:042AB40031010008E4
:042AB8000D01000804
:102ABC0001010100010101000101010001010100FE
:102ACC00000C0140000C0140000C01408000000192
:102ADC0000020000010000000500000002000000E0
:102AEC000300000000127A0010000000010000003A
:04000005080013FDDF
:00000001FF
