:020000040800F2
:1000000000280020D1140008551000085B100008DB
:1000100061100008671000086D1000080000000063
:100020000000000000000000000000007310000845
:100030007F100008000000008B10000897100008D7
:1000400019150008191500081915000819150008D8
:1000500019150008191500081915000819150008C8
:1000600019150008191500081915000819150008B8
:1000700019150008191500081915000819150008A8
:100080001915000819150008191500081915000898
:100090001915000819150008191500081915000888
:1000A0001915000819150008191500081915000878
:1000B000A510000819150008000000001915000817
:1000C00019150008000000000000000019150008C4
:1000D00000000000191500081915000800000000B4
:1000E000191500081915000819150008000000006E
:1000F0000000000000000000000000000000000000
:0C01000000000000000000005FF808F1A3
:10010C0010B5054C237833B9044B13B10448AFF345
:10011C0000800123237010BD40000020000000006F
:10012C00482B000808B5034B1BB103490348AFF338
:10013C00008008BD0000000044000020482B00088F
:10014C0080B483B000AF7860094A7B6852F82330E2
:10015C00012B06D1064A7B68002142F823100123AB
:10016C0000E0002318460C37BD4680BC704700BF2A
:10017C005C00002080B483B000AF7860094A7B68D3
:10018C0052F82330012B06D1064A7B68002142F835
:10019C002310012300E0002318460C37BD4680BC19
:1001AC00704700BF6800002080B582B000AF00230C
:1001BC007B6079E0404A7B68134419783F4A7B683E
:1001CC0013440A461A703E4A7B68134419783A4A1B
:1001DC007B6813440A461A703A4A7B6852F823200B
:1001EC0039497B6831F813301946104601F07AFC16
:1001FC0003461946324A7B6813440A461A702F4A42
:10020C007B6813441A782C497B680B441B789A4200
:10021C0047D1294A7B6813441A7829497B680B44D7
:10022C001B789A423DD1294A7B6813441A78244999
:10023C007B680B441B789A4214D0214A7B68134488
:10024C001978224A7B6813440A461A701C4A7B6848
:10025C0013441B78002B24D11D4A7B68012142F8E2
:10026C0023101EE01B4A7B6852F823305A1C194994
:10027C007B6841F82320174A7B6852F82330632BA4
:10028C000FDD0F4A7B6813441B78002B04D1124AF4
:10029C007B68012142F823100E4A7B68002142F84A
:1002AC0023107B6801337B607B68022B82DD00BFEF
:1002BC0000BF0837BD4680BD0800002004000020A8
:1002CC000C000020100000201C000020000000206A
:1002DC005C000020740000206800002080B582B013
:1002EC0000AF78607B68092B00F2808101A252F884
:1002FC0023F000BF2903000871030008B9030008AC
:10030C00010400084904000891040008D9040008FD
:10031C002105000869050008B1050008002201212B
:10032C00B54801F0F6FB00220221B34801F0F1FBC5
:10033C0000220421B04801F0ECFB00220821AE4859
:10034C0001F0E7FB00221021AB4801F0E2FB002298
:10035C002021A94801F0DDFB01224021A64801F033
:10036C00D8FB44E101220121A34801F0D2FB002279
:10037C000221A14801F0CDFB002204219E4801F08E
:10038C00C8FB012208219C4801F0C3FB012210216B
:10039C00994801F0BEFB01222021974801F0B9FBDE
:1003AC0001224021944801F0B4FB20E100220121FC
:1003BC00914801F0AEFB002202218F4801F0A9FB0D
:1003CC00012204218C4801F0A4FB002208218A4858
:1003DC0001F09FFB00221021874801F09AFB0122BB
:1003EC002021854801F095FB00224021824801F034
:1003FC0090FBFCE0002201217F4801F08AFB0022E7
:10040C0002217D4801F085FB002204217A4801F08D
:10041C0080FB00220821784801F07BFB012210218F
:10042C00754801F076FB01222021734801F071FB25
:10043C0000224021704801F06CFBD8E00122012120
:10044C006D4801F066FB002202216B4801F061FB54
:10045C0000220421684801F05CFB01220821664857
:10046C0001F057FB01221021634801F052FB0022DE
:10047C002021614801F04DFB002240215E4801F033
:10048C0048FBB4E0002201215B4801F042FB012251
:10049C000221594801F03DFB00220421564801F08D
:1004AC0038FB00220821544801F033FB01221021B3
:1004BC00514801F02EFB002220214F4801F029FB6E
:1004CC00002240214C4801F024FB90E00022012145
:1004DC00494801F01EFB01220221474801F019FB9B
:1004EC0000220421444801F014FB00220821424858
:1004FC0001F00FFB002210213F4801F00AFB002203
:10050C0020213D4801F005FB002240213A4801F032
:10051C0000FB6CE000220121374801F0FAFA0022BE
:10052C000221354801F0F5FA00220421324801F08D
:10053C00F0FA01220821304801F0EBFA01221021D7
:10054C002D4801F0E6FA012220212B4801F0E1FAB6
:10055C0001224021284801F0DCFA48E00022012168
:10056C00254801F0D6FA00220221234801F0D1FAE5
:10057C0000220421204801F0CCFA002208211E4858
:10058C0001F0C7FA002210211B4801F0C2FA002228
:10059C002021194801F0BDFA00224021164801F033
:1005AC00B8FA24E000220121134801F0B2FA00222B
:1005BC000221114801F0ADFA002204210E4801F08D
:1005CC00A8FA002208210C4801F0A3FA01221021FC
:1005DC00094801F09EFA00222021074801F099FAFF
:1005EC0000224021044801F094FA00E000BF00BF53
:1005FC000837BD4680BD00BF000C014080B500AF80
:10060C008F4B1B68013B042B00F20E8201A252F8A7
:10061C0023F000BF350600088306000863070008B6
:10062C00750800085509000800F058FE854B1B683A
:10063C00854A1360854B1B68854A1360804B0222E8
:10064C001A60824B1B68642202FB03F319460020DC
:10065C0000F05CFC0221012000F058FC0321022078
:10066C0000F054FC0521032000F050FC072104206D
:10067C0000F04CFCD9E100F01FFD764B1B68012B00
:10068C000FD1754B1B68642202FB03F31946002043
:10069C0000F03CFC6A4B03221A606F4B1B686C4ADF
:1006AC0013606C4B5B68012B0DD16421012000F0B1
:1006BC002DFC654B1B68013B634A1360644B1B6844
:1006CC00013B634A1360604B1B68644A82FB031254
:1006DC009210DB17D31A624A13605B4B19685F4B9D
:1006EC0083FB01239A10CB17D21A13469B00134499
:1006FC005B00CA1A5A4B5A60554B1B68574A82FB0F
:10070C0003129210DB17D31A554A9360504B196899
:10071C00524B83FB01239A10CB17D21A13469B0022
:10072C0013445B00CA1A4E4BDA600020FFF708FD39
:10073C000346012B0CD1424B0B221A6005210320DE
:10074C0000F0E4FB3F4B1B68464A136000F0C6FD0B
:10075C0000F010FE69E100F0D7FC3E4B1B68012B4A
:10076C0013D13A4B1B68642202FB03F31946002099
:10077C0000F0CCFB324B04221A60344B1B68324A1B
:10078C001360304B1B68324A1360324B5B68012B91
:10079C000DD16421012000F0B9FB2B4B1B68013BF0
:1007AC00294A13602A4B1B68013B294A1360264BCC
:1007BC001B682A4A82FB03129210DB17D31A284AB1
:1007CC001360214B1968254B83FB01239A10CB171F
:1007DC00D21A13469B0013445B00CA1A204B5A6072
:1007EC001B4B1B681D4A82FB03129210DB17D31A9A
:1007FC001B4A9360164B1968184B83FB01239A1004
:10080C00CB17D21A13469B0013445B00CA1A144B25
:10081C00DA600020FFF794FC0346012B0CD1084B47
:10082C000B221A600521032000F070FB054B1B689E
:10083C000C4A136000F052FD00F09CFDF5E000BF87
:10084C002400002028000020800000203000002020
:10085C0084000020E80000202C00002067666666FB
:10086C00900000208800002000F076FC704B1B6884
:10087C00012B0FD16F4B1B68642202FB03F319464B
:10088C00002000F043FB6C4B05221A60694B1B687F
:10089C006A4A1360664B5B68012B0DD16421012001
:1008AC0000F034FB654B1B68013B644A1360644BDE
:1008BC001B68013B624A1360604B1B68614A82FBF8
:1008CC0003129210DB17D31A5F4A13605B4B196843
:1008DC005C4B83FB01239A10CB17D21A13469B0057
:1008EC0013445B00CA1A584B5A60554B1B68554A47
:1008FC0082FB03129210DB17D31A534A9360504BAE
:10090C001968504B83FB01239A10CB17D21A13464C
:10091C009B0013445B00CA1A4B4BDA600020FFF7B4
:10092C000FFC0346012B0CD1434B0B221A60052103
:10093C00032000F0EBFA454B1B68454A136000F0AE
:10094C00CDFC00F017FD70E000F02EFC384B1B685E
:10095C00012B13D13F4B1B68642202FB03F3194696
:10096C00002000F0D3FA344B02221A60374B1B687C
:10097C00324A1360374B1B68314A13602C4B5B684F
:10098C00012B0DD16421012000F0C0FA2B4B1B6808
:10099C00013B2A4A13602A4B1B68013B284A13600F
:1009AC00264B1B68274A82FB03129210DB17D31AC3
:1009BC00254A1360214B1968224B83FB01239A10A3
:1009CC00CB17D21A13469B0013445B00CA1A1E4B5A
:1009DC005A601B4B1B681B4A82FB03129210DB17DD
:1009EC00D31A194A9360164B1968164B83FB0123D3
:1009FC009A10CB17D21A13469B0013445B00CA1AE9
:100A0C00114BDA600020FFF79BFB0346012B08D14A
:100A1C00094B0B221A600D4B1B680D4A136000F03A
:100A2C005DFC00F0A7FC00E000BF00BF80BD00BF74
:100A3C00E80000202C000020240000208000002072
:100A4C008400002067666666900000202800002065
:100A5C00880000203000002080B500AF9B4B1B6845
:100A6C000D2B00F0CE800D2B00F32D810B2B02D023
:100A7C000C2B63D027E1964BDB68012B05D1192198
:100A8C00032000F043FA00F0B7FB924B1B68924A2C
:100A9C0082FB03129210DB17D31A904A13608D4B12
:100AAC0019688D4B83FB01239A10CB17D21A13466E
:100ABC009B0013445B00CA1A884B5A60874B002278
:100ACC009A60864B0222DA600120FFF739FB03465D
:100ADC00012B04D17F4B1B6801337E4A136001202C
:100AEC00FFF748FB0346012B0CD1794B1B69012BFB
:100AFC0008D13221042000F009FA764B1B6801332F
:100B0C00744A13600220FFF71BFB0346012B03D131
:100B1C00704B1B68724A13600020FFF711FB0346F1
:100B2C00012B08D1694B0C221A606E4B1B68694A69
:100B3C00136000F0D3FB00F01DFCC5E0644BDB68D8
:100B4C00012B05D11921032000F0E0F900F0A0FBE6
:100B5C00604B1B68604A82FB03129210DB17D31A9E
:100B6C005E4A13605B4B19685B4B83FB01239A1045
:100B7C00CB17D21A13469B0013445B00CA1A574B6F
:100B8C005A60564B00229A60544B0322DA600120C3
:100B9C00FFF7D6FA0346012B04D14E4B1B680133E9
:100BAC004C4A13600120FFF7E5FA0346012B0CD1E8
:100BBC00474B1B69012B08D13221042000F0A6F908
:100BCC00444B1B680133434A13600220FFF7B8FA09
:100BDC000346012B03D13F4B1B68424A1360002094
:100BEC00FFF7AEFA0346012B08D1384B0D221A60E1
:100BFC003D4B1B68374A136000F070FB00F0BAFBEA
:100C0C0062E0334BDB68012B05D11921032000F086
:100C1C007DF900F017FB2F4B1B682F4A82FB031248
:100C2C009210DB17D31A2D4A13602A4B19682A4BE2
:100C3C0083FB01239A10CB17D21A13469B00134443
:100C4C005B00CA1A254B5A60244B00229A60234B36
:100C5C000422DA600120FFF773FA0346012B04D15A
:100C6C001C4B1B6801331B4A13600120FFF782FAEF
:100C7C000346012B0CD1164B1B69012B08D13221D9
:100C8C00042000F043F9134B1B680133114A136025
:100C9C000220FFF755FA0346012B03D10D4B1B68BD
:100CAC00114A13600020FFF74BFA0346012B07D1C2
:100CBC00064B01221A60074B00221A6000F00EFB53
:100CCC0000F058FB00E000BF00BF80BD24000020F6
:100CDC00E80000208800002067666666900000200F
:100CEC0028000020300000202C00002080B500AF30
:100CFC0000F00EFC00F00EF800F094F800F046F84E
:100D0C00034801F063FBFFF779FCFFF7A5FEFAE758
:100D1C00A000002080B590B000AF07F11803282286
:100D2C000021184601F002FF3B1D00221A605A6098
:100D3C009A60DA601A610223BB610123BB62102343
:100D4C00FB6200237B6307F11803184600F012FFC7
:100D5C000346002B01D000F0D3F80F237B60002357
:100D6C00BB600023FB6000233B6100237B613B1DC8
:100D7C000021184601F07EF90346002B01D000F04B
:100D8C00BFF800BF4037BD4680BD000080B586B0BF
:100D9C0000AF07F1080300221A605A609A60DA600B
:100DAC003B4600221A605A601D4B4FF080421A607D
:100DBC001B4B41F63F725A60194B00229A60184B3C
:100DCC000922DA60164B00221A61154B00229A6137
:100DDC00134801F0ABFA0346002B01D000F090F859
:100DEC004FF48053BB6007F1080319460C4801F01F
:100DFC0029FC0346002B01D000F082F800233B6055
:100E0C0000237B603B461946054801F001FE034672
:100E1C00002B01D000F074F800BF1837BD4680BD20
:100E2C00A000002080B586B000AF07F108030022B7
:100E3C001A605A609A60DA60284B9B69274A43F023
:100E4C0004039361254B9B6903F004037B607B686F
:100E5C00224B9B69214A43F0080393611F4B9B690A
:100E6C0003F008033B603B68002240F2FE711C4813
:100E7C0000F04FFE00227F211A4800F04AFE40F29B
:100E8C00FE73BB600123FB6000233B6102237B618B
:100E9C0007F108031946124800F0AAFC7F23BB6037
:100EAC000123FB6000233B6102237B6107F10803F4
:100EBC0019460C4800F09CFC4FF46073BB60002397
:100ECC00FB6001233B6107F108031946054800F05C
:100EDC008FFC00BF1837BD4680BD00BF001002401C
:100EEC0000080140000C014080B582B000AF786072
:100EFC0000F024F8FFF758F900BF0837BD4680BD55
:100F0C0080B400AF72B600BFFEE7000080B483B0BF
:100F1C0000AF7860396007497B683A6841F8232054
:100F2C00054A7B68002142F8231000BF0C37BD46F0
:100F3C0080BC7047FC000020E800002080B483B027
:100F4C0000AF00237B601CE0124A7B6852F8233010
:100F5C00002B13DD0F4A7B6852F823305A1E0D49C3
:100F6C007B6841F823200B4A7B6852F82330002B16
:100F7C0004DC094A7B68012142F823107B680133A9
:100F8C007B607B68042BDFDD00BF00BF0C37BD46E8
:100F9C0080BC7047FC000020E800002080B485B0C5
:100FAC0000AF154B9B69144A43F001039361124B3C
:100FBC009B6903F00103BB60BB680F4BDB690E4AF6
:100FCC0043F08053D3610C4BDB6903F080537B609F
:100FDC007B680A4B5B68FB60FB6823F0E063FB609B
:100FEC00FB6843F08063FB60044AFB68536000BFFE
:100FFC001437BD4680BC7047001002400000014011
:10100C0080B584B000AF78607B681B68B3F1804F0B
:10101C0013D10C4BDB690B4A43F00103D361094B31
:10102C00DB6903F00103FB60FB68002200211C203C
:10103C0000F0A7FB1C2000F0C0FB00BF1037BD4622
:10104C0080BD00BF0010024080B400AFFEE780B44A
:10105C0000AFFEE780B400AFFEE780B400AFFEE760
:10106C0080B400AFFEE780B400AF00BFBD4680BCCB
:10107C00704780B400AF00BFBD4680BC704780B4E1
:10108C0000AF00BFBD4680BC704780B500AF00F01C
:10109C0085FA00BF80BD000080B500AF024801F0AA
:1010AC00E1F900BF80BD00BFA000002080B400AFFC
:1010BC0000BFBD4680BC704780B500AF0122202127
:1010CC00104800F026FD002240210E4800F021FDC2
:1010DC00002280210B4800F01CFD00224FF480718F
:1010EC00084800F016FD00224FF40071054800F08E
:1010FC0010FD01224FF48061024800F00AFD00BF90
:10110C0080BD00BF0008014080B500AF0122202146
:10111C00104800F0FEFC002240210E4800F0F9FCC3
:10112C00002280210B4800F0F4FC00224FF4807167
:10113C00084800F0EEFC01224FF40071054800F065
:10114C00E8FC00224FF48061024800F0E2FC00BF92
:10115C0080BD00BF0008014080B500AF00222021F7
:10116C00104800F0D6FC002240210E4800F0D1FCC3
:10117C00012280210B4800F0CCFC01224FF480713D
:10118C00084800F0C6FC00224FF40071054800F03E
:10119C00C0FC00224FF48061024800F0BAFC00BF92
:1011AC0080BD00BF0008014080B500AF00222021A7
:1011BC00104800F0AEFC012240210E4800F0A9FCC2
:1011CC00002280210B4800F0A4FC01224FF4807116
:1011DC00084800F09EFC00224FF40071054800F016
:1011EC0098FC00224FF48061024800F092FC00BF92
:1011FC0080BD00BF0008014080B500AF2021104821
:10120C0000F09FFC002240210D4800F082FC0022DF
:10121C0080210B4800F07DFC4FF48071084800F0F1
:10122C0090FC00224FF40071054800F072FC002283
:10123C004FF48061024800F06CFC00BF80BD00BF21
:10124C000008014080B500AF002220210F4800F0BB
:10125C0060FC40210D4800F074FC002280210B48FA
:10126C0000F057FC00224FF48071084800F051FC4C
:10127C004FF40071054800F064FC00224FF48061CB
:10128C00024800F046FC00BF80BD00BF00080140D2
:10129C0080B500AF002220210F4800F03AFC00225C
:1012AC0040210D4800F035FC80210B4800F049FC32
:1012BC0000224FF48071084800F02BFC00224FF400
:1012CC000071054800F025FC4FF48061024800F0E5
:1012DC0038FC00BF80BD00BF0008014080B500AFE6
:1012EC0000222021214800F014FC00224FF48071D0
:1012FC001E4800F00EFC002240211C4800F009FCA6
:10130C0000224FF40071194800F003FC00228021E8
:10131C00164800F0FEFB00224FF48061134800F0E9
:10132C00F8FB01220121124800F0F3FB01220221FB
:10133C000F4800F0EEFB012204210D4800F0E9FB00
:10134C00012208210A4800F0E4FB01221021084880
:10135C0000F0DFFB01222021054800F0DAFB01221E
:10136C004021034800F0D5FB00BF80BD00080140C0
:10137C00000C014080B500AF0D4B9B68012B14D1C4
:10138C0019210220FFF7C2FD0A4B1B685A1C0949A0
:10139C000A60184600F012F8064B1A68064B1B68D8
:1013AC009A4202DB034B00221A6000BF80BD00BFD3
:1013BC00E80000208C000020602B000880B582B073
:1013CC0000AF78607B68032B72D801A252F823F02F
:1013DC00ED130008211400085514000889140008A6
:1013EC00364B1B681846FEF779FF00220221344861
:1013FC0000F08FFB01220421314800F08AFB01220E
:10140C0008212F4800F085FB012210212C4800F008
:10141C0080FB4EE0294B5B681846FEF75FFF01220C
:10142C000221274800F075FB00220421244800F01B
:10143C0070FB01220821224800F06BFB01221021D5
:10144C001F4800F066FB34E01C4B9B681846FEF707
:10145C0045FF012202211A4800F05BFB0122042106
:10146C00174800F056FB00220821154800F051FBEC
:10147C0001221021124800F04CFB1AE00F4BDB68E4
:10148C001846FEF72BFF012202210D4800F041FB0C
:10149C00012204210A4800F03CFB012208210848E3
:1014AC0000F037FB00221021054800F032FB00E071
:1014BC0000BF00BF0837BD4680BD00BF90000020B4
:1014CC0000080140FFF7F2FD0B480C490C4A0023C1
:1014DC0002E0D458C4500433C4188C42F9D3094ADE
:1014EC00094C002301E013600432A242FBD301F04B
:1014FC00F9FAFFF7FBFB70470000002040000020CA
:10150C00902B00084000002014010020FEE7000092
:10151C0080B500AF084B1B68074A43F010031360FB
:10152C00032000F023F90F2000F008F8FFF736FD38
:10153C000023184680BD00BF0020024080B582B059
:10154C0000AF7860124B1A68124B1B7819464FF497
:10155C007A73B3FBF1F3B2FBF3F3184600F03BF9EB
:10156C000346002B01D001230EE07B680F2B0AD819
:10157C00002279684FF0FF3000F003F9064A7B68CF
:10158C001360002300E0012318460837BD4680BDD8
:10159C00340000203C0000203800002080B400AF54
:1015AC00054B1B781A46054B1B681344034A136002
:1015BC0000BFBD4680BC70473C00002010010020DD
:1015CC0080B400AF024B1B681846BD4680BC704708
:1015DC001001002080B485B000AF78607B6803F008
:1015EC000703FB600C4BDB68BB60BA684FF6FF036C
:1015FC001340BB60FB681A02BB68134343F0BF6324
:10160C0043F40033BB60044ABB68D36000BF14379B
:10161C00BD4680BC704700BF00ED00E080B400AF59
:10162C00044BDB681B0A03F007031846BD4680BC5D
:10163C00704700BF00ED00E080B483B000AF0346FC
:10164C00FB7197F90730002B0BDBFB7903F01F02C2
:10165C00064997F907305B09012000FA02F241F8BC
:10166C00232000BF0C37BD4680BC704700E100E072
:10167C0080B483B000AF03463960FB7197F9073033
:10168C00002B0ADB3B68DAB20C4997F907301201E0
:10169C00D2B20B4483F800230AE03B68DAB2084963
:1016AC00FB7903F00F03043B1201D2B20B441A7600
:1016BC0000BF0C37BD4680BC704700BF00E100E0A6
:1016CC0000ED00E080B489B000AFF860B9607A60DA
:1016DC00FB6803F00703FB61FB69C3F10703042BF1
:1016EC0028BF0423BB61FB690433062B02D9FB69B9
:1016FC00033B00E000237B614FF0FF32BB6902FA31
:10170C0003F3DA43BB681A407B699A404FF0FF3110
:10171C007B6901FA03F3D9437B680B4013431846EA
:10172C002437BD4680BC704780B582B000AF78606E
:10173C007B68013BB3F1807F01D301230FE00A4AA0
:10174C007B68013B53600F214FF0FF30FFF790FF98
:10175C00054B00229A60044B07221A60002318469E
:10176C000837BD4680BD00BF10E000E080B582B0F8
:10177C0000AF78607868FFF72DFF00BF0837BD46D3
:10178C0080BD80B586B000AF0346B9607A60FB734C
:10179C0000237B61FFF742FF78617A68B96878694A
:1017AC00FFF790FF024697F90F3011461846FFF7E6
:1017BC005FFF00BF1837BD4680BD80B582B000AF5B
:1017CC000346FB7197F907301846FFF735FF00BF4A
:1017DC000837BD4680BD80B582B000AF78607868B0
:1017EC00FFF7A2FF034618460837BD4680BD000030
:1017FC0080B48BB000AF7860396000237B6200232B
:10180C003B6248E101227B6A02FA03F3FB613B680D
:10181C001B68FA691340BB61BA69FB699A4240F0D4
:10182C0037813B685B68A34A93425ED0A14A9342DE
:10183C0075D8A14A934258D09F4A93426FD89F4A79
:10184C00934252D09D4A934269D89D4A93424CD0C0
:10185C009B4A934263D89B4A934246D0994A9342FF
:10186C005DD8122B2AD8122B59D801A252F823F08A
:10187C00F7180008D1180008E3180008251900080B
:10188C002B1900082B1900082B1900082B1900081C
:10189C002B1900082B1900082B1900082B1900080C
:1018AC002B1900082B1900082B1900082B190008FC
:1018BC002B190008D9180008ED180008824A934229
:1018CC0013D02CE03B68DB683B6229E03B68DB68AB
:1018DC0004333B6224E03B68DB6808333B621FE067
:1018EC003B68DB680C333B621AE03B689B68002B5F
:1018FC0002D104233B6213E03B689B68012B05D1AA
:10190C0008233B627B68FA691A6109E008233B6291
:10191C007B68FA695A6103E000233B6200E000BF78
:10192C00BB69FF2B01D87B6801E07B6804337B61CA
:10193C00BB69FF2B02D87B6A9B0002E07B6A083BE9
:10194C009B003B617B691A680F213B6901FA03F329
:10195C00DB431A40396A3B6901FA03F31A437B698A
:10196C001A603B685B6803F08053002B00F090809A
:10197C00564B9B69554A43F001039361534B9B694A
:10198C0003F00103BB60BB68514A7B6A9B080233BE
:10199C0052F82330FB607B6A03F003039B000F2299
:1019AC0002FA03F3DB43FA681340FB607B68494A95
:1019BC0093420DD07B68484A934207D07B68474AD4
:1019CC00934201D1022304E0032302E0012300E04F
:1019DC0000237A6A02F0030292009340FA681343E0
:1019EC00FB603B497B6A9B080233FA6841F8232071
:1019FC003B685B6803F48013002B06D0384B9A6865
:101A0C003749BB6913438B6006E0354B9A68BB6959
:101A1C00DB43334913408B603B685B6803F4001372
:101A2C00002B06D02E4BDA682D49BB691343CB60D3
:101A3C0006E02B4BDA68BB69DB4329491340CB60CA
:101A4C003B685B6803F40033002B06D0244B5A68C8
:101A5C002349BB6913434B6006E0214B5A68BB69B1
:101A6C00DB431F4913404B603B685B6803F48033D6
:101A7C00002B06D01A4B1A681949BB6913430B602B
:101A8C0006E0174B1A68BB69DB43154913400B6022
:101A9C007B6A01337B623B681A687B6A22FA03F328
:101AAC00002B7FF4AFAE00BF00BF2C37BD4680BC0F
:101ABC00704700BF000032100000311000002210EF
:101ACC000000211000001210000011100010024044
:101ADC000000014000080140000C014000100140D2
:101AEC000004014080B485B000AF78600B467B8069
:101AFC007B689A687B881340002B02D00123FB7310
:101B0C0001E00023FB73FB7B18461437BD4680BCF9
:101B1C00704780B483B000AF78600B467B8013466F
:101B2C007B707B78002B03D07A887B681A6103E08A
:101B3C007B881A047B681A6100BF0C37BD4680BCD9
:101B4C00704780B485B000AF78600B467B807B68B3
:101B5C00DB68FB607A88FB6813401A04FB68D94386
:101B6C007B880B401A437B681A6100BF1437BD4653
:101B7C0080BC704780B586B000AF78607B68002B66
:101B8C0001D101236CE27B681B6803F00103002B7D
:101B9C0000F08780924B5B6803F00C03042B0CD095
:101BAC008F4B5B6803F00C03082B12D18C4B5B68DA
:101BBC0003F48033B3F5803F0BD1894B1B6803F4DE
:101BCC000033002B6CD07B685B68002B68D1012341
:101BDC0046E27B685B68B3F5803F06D1804B1B689F
:101BEC007F4A43F4803313602EE07B685B68002BE4
:101BFC000CD17B4B1B687A4A23F480331360784BEF
:101C0C001B68774A23F4802313601DE07B685B68B4
:101C1C00B3F5A02F0CD1724B1B68714A43F480238F
:101C2C0013606F4B1B686E4A43F4803313600BE0F8
:101C3C006B4B1B686A4A23F480331360684B1B6838
:101C4C00674A23F4802313607B685B68002B13D0F6
:101C5C00FFF7B6FC386108E0FFF7B2FC02463B69BF
:101C6C00D31A642B01D90323FAE15D4B1B6803F4EF
:101C7C000033002BF0D014E0FFF7A2FC386108E031
:101C8C00FFF79EFC02463B69D31A642B01D9032350
:101C9C00E6E1534B1B6803F40033002BF0D100E05A
:101CAC0000BF7B681B6803F00203002B63D04C4B16
:101CBC005B6803F00C03002B0BD0494B5B6803F003
:101CCC000C03082B1CD1464B5B6803F48033002BB0
:101CDC0016D1434B1B6803F00203002B05D07B6825
:101CEC001B69012B01D00123BAE13D4B1B6823F08A
:101CFC00F8027B685B69DB00394913430B603AE0FF
:101D0C007B681B69002B20D0364B01221A60FFF731
:101D1C0057FC386108E0FFF753FC02463B69D31AC5
:101D2C00022B01D903239BE12D4B1B6803F002030B
:101D3C00002BF0D02A4B1B6823F0F8027B685B6900
:101D4C00DB00274913430B6015E0264B00221A6079
:101D5C00FFF736FC386108E0FFF732FC02463B69BE
:101D6C00D31A022B01D903237AE11D4B1B6803F014
:101D7C000203002BF0D17B681B6803F00803002BD7
:101D8C003AD07B689B69002B19D0174B01221A6043
:101D9C00FFF716FC386108E0FFF712FC02463B69BE
:101DAC00D31A022B01D903235AE10D4B5B6A03F0C2
:101DBC000203002BF0D0012000F09AFA1CE00A4B31
:101DCC0000221A60FFF7FCFB38610FE0FFF7F8FB0D
:101DDC0002463B69D31A022B08D9032340E100BF0A
:101DEC000010024000004242800442429E4B5B6A5B
:101DFC0003F00203002BE9D17B681B6803F004039A
:101E0C00002B00F0A6800023FB75974BDB6903F0D9
:101E1C008053002B0DD1944BDB69934A43F08053D4
:101E2C00D361914BDB6903F08053BB60BB6801232A
:101E3C00FB758E4B1B6803F48073002B18D18B4BF6
:101E4C001B688A4A43F480731360FFF7B9FB38614F
:101E5C0008E0FFF7B5FB02463B69D31A642B01D9A6
:101E6C000323FDE0814B1B6803F48073002BF0D03F
:101E7C007B68DB68012B06D17B4B1B6A7A4A43F0EB
:101E8C00010313622DE07B68DB68002B0CD1764BD1
:101E9C001B6A754A23F001031362734B1B6A724A67
:101EAC0023F0040313621CE07B68DB68052B0CD168
:101EBC006D4B1B6A6C4A43F0040313626A4B1B6A3A
:101ECC00694A43F0010313620BE0674B1B6A664AD5
:101EDC0023F001031362644B1B6A634A23F004036F
:101EEC0013627B68DB68002B15D0FFF769FB386148
:101EFC000AE0FFF765FB02463B69D31A41F28832D0
:101F0C00934201D90323ABE0574B1B6A03F0020346
:101F1C00002BEED014E0FFF753FB38610AE0FFF71B
:101F2C004FFB02463B69D31A41F28832934201D9E6
:101F3C00032395E04C4B1B6A03F00203002BEED1FC
:101F4C00FB7D012B05D1484BDB69474A23F08053BD
:101F5C00D3617B68DB69002B00F08180424B5B68AE
:101F6C0003F00C03082B61D07B68DB69022B46D194
:101F7C003F4B00221A60FFF723FB386108E0FFF7A4
:101F8C001FFB02463B69D31A022B01D9032367E0DE
:101F9C00354B1B6803F00073002BF0D17B681B6A78
:101FAC00B3F5803F08D1304B5B6823F400327B687B
:101FBC009B682D4913434B602B4B5B6823F47412C5
:101FCC007B68196A7B685B6A0B43274913434B6038
:101FDC00274B01221A60FFF7F3FA386108E0FFF78C
:101FEC00EFFA02463B69D31A022B01D9032337E0DF
:101FFC001D4B1B6803F00073002BF0D02FE01C4B23
:10200C0000221A60FFF7DCFA386108E0FFF7D8FA13
:10201C0002463B69D31A022B01D9032320E0124B51
:10202C001B6803F00073002BF0D118E07B68DB69B0
:10203C00012B01D1012313E00B4B5B68FB60FB68A8
:10204C0003F480327B681B6A9A4206D1FB6803F466
:10205C0070127B685B6A9A4201D0012300E0002376
:10206C0018461837BD4680BD001002400070004075
:10207C006000424280B584B000AF786039607B6804
:10208C00002B01D10123D0E06A4B1B6803F007033E
:10209C003A689A4210D9674B1B6823F007026549CE
:1020AC003B6813430B60634B1B6803F007033A68F0
:1020BC009A4201D00123B8E07B681B6803F002034D
:1020CC00002B20D07B681B6803F00403002B05D089
:1020DC00594B5B68584A43F4E06353607B681B6858
:1020EC0003F00803002B05D0534B5B68524A43F4B2
:1020FC0060535360504B5B6823F0F0027B689B6825
:10210C004D4913434B607B681B6803F00103002BA4
:10211C0040D07B685B68012B07D1474B1B6803F4ED
:10212C000033002B15D101237FE07B685B68022B09
:10213C0007D1414B1B6803F00073002B09D101231D
:10214C0073E03D4B1B6803F00203002B01D101230C
:10215C006BE0394B5B6823F003027B685B683649A4
:10216C0013434B60FFF72CFAF8600AE0FFF728FAEC
:10217C000246FB68D31A41F28832934201D90323F9
:10218C0053E02D4B5B6803F00C027B685B689B0093
:10219C009A42EBD1274B1B6803F007033A689A422B
:1021AC0010D2244B1B6823F0070222493B681343CF
:1021BC000B60204B1B6803F007033A689A4201D06E
:1021CC00012332E07B681B6803F00403002B08D06A
:1021DC00194B5B6823F4E0627B68DB681649134398
:1021EC004B607B681B6803F00803002B09D0124B73
:1021FC005B6823F460527B681B69DB000E49134358
:10220C004B6000F021F802460B4B5B681B0903F096
:10221C000F030A49CB5C22FA03F3094A1360094BFA
:10222C001B681846FFF78AF9002318461037BD467D
:10223C0080BD00BF0020024000100240642B00084B
:10224C00340000203800002080B487B000AF002399
:10225C00FB600023BB6000237B6100237B600023B9
:10226C003B611E4B5B68FB60FB6803F00C03042BAB
:10227C0002D0082B03D027E0194B3B6127E0FB6809
:10228C009B0C03F00F03174AD35C7B60FB6803F4D1
:10229C008033002B10D0114B5B685B0C03F00103F7
:1022AC00114AD35CBB607B680D4A02FB03F2BB682E
:1022BC00B2FBF3F37B6104E07B680C4A02FB03F393
:1022CC007B617B693B6102E0054B3B6100BF3B6975
:1022DC0018461C37BD4680BC704700BF001002403A
:1022EC0000127A00742B0008842B000800093D00B2
:1022FC0080B485B000AF78600A4B1B680A4AA2FB19
:10230C0003235B0A7A6802FB03F3FB6000BFFB68E4
:10231C005A1EFA60002BF9D100BF00BF1437BD461E
:10232C0080BC704734000020D34D621080B582B061
:10233C0000AF78607B68002B01D1012341E07B6802
:10234C0093F83D30DBB2002B06D17B68002283F87A
:10235C003C207868FEF754FE7B68022283F83D200F
:10236C007B681A687B6804331946104600F056FAED
:10237C007B68012283F846207B68012283F83E208B
:10238C007B68012283F83F207B68012283F8402080
:10239C007B68012283F841207B68012283F842206C
:1023AC007B68012283F843207B68012283F8442058
:1023BC007B68012283F845207B68012283F83D204D
:1023CC00002318460837BD4680BD000080B485B098
:1023DC0000AF78607B6893F83D30DBB2012B01D005
:1023EC00012335E07B68022283F83D207B681B6863
:1023FC00DA687B681B6842F00102DA607B681B6854
:10240C00164A934209D07B681B68B3F1804F04D005
:10241C007B681B68124A934211D17B681B689B68CE
:10242C0003F00703FB60FB68062B10D07B681B686E
:10243C001A687B681B6842F001021A6007E07B682F
:10244C001B681A687B681B6842F001021A60002343
:10245C0018461437BD4680BC704700BF002C0140A5
:10246C000004004080B584B000AF78607B681B68C6
:10247C00DB68FB607B681B681B69BB60BB6803F097
:10248C000203002B20D0FB6803F00203002B1BD0AF
:10249C007B681B686FF002021A617B6801221A7755
:1024AC007B681B689B6903F00303002B03D07868DF
:1024BC0000F098F905E0786800F08BF9786800F086
:1024CC009AF97B6800221A77BB6803F00403002B8F
:1024DC0020D0FB6803F00403002B1BD07B681B6827
:1024EC006FF004021A617B6802221A777B681B6802
:1024FC009B6903F44073002B03D0786800F072F9E9
:10250C0005E0786800F065F9786800F074F97B688C
:10251C0000221A77BB6803F00803002B20D0FB685D
:10252C0003F00803002B1BD07B681B686FF00802BC
:10253C001A617B6804221A777B681B68DB6903F0DD
:10254C000303002B03D0786800F04CF905E07868A1
:10255C0000F03FF9786800F04EF97B6800221A779A
:10256C00BB6803F01003002B20D0FB6803F01003B2
:10257C00002B1BD07B681B686FF010021A617B6804
:10258C0008221A777B681B68DB6903F44073002B05
:10259C0003D0786800F026F905E0786800F019F9A6
:1025AC00786800F028F97B6800221A77BB6803F082
:1025BC000103002B0CD0FB6803F00103002B07D0A8
:1025CC007B681B686FF001021A617868FEF78CFC5F
:1025DC00BB6803F08003002B0CD0FB6803F0800376
:1025EC00002B07D07B681B686FF080021A6178683B
:1025FC0000F06FFABB6803F04003002B0CD0FB68B3
:10260C0003F04003002B07D07B681B686FF040027F
:10261C001A61786800F0F8F8BB6803F02003002B0F
:10262C000CD0FB6803F02003002B07D07B681B68E1
:10263C006FF020021A61786800F042FA00BF103780
:10264C00BD4680BD80B584B000AF78603960002392
:10265C00FB737B6893F83C30012B01D10223B4E06F
:10266C007B68012283F83C207B68022283F83D20A2
:10267C007B681B689B68BB60BB6823F07703BB60FF
:10268C00BB6823F47F43BB607B681B68BA689A60A5
:10269C003B681B68B3F5005F3ED0B3F5005F00F2FA
:1026AC008780B3F5805F00F08680B3F5805F7FD8BC
:1026BC00702B1AD0702B7BD8602B50D0602B77D816
:1026CC00502B3CD0502B73D8402B58D0402B6FD86C
:1026DC00302B64D0302B6BD8202B60D0202B67D8BC
:1026EC00002B5CD0102B5AD062E07B6818683B68DA
:1026FC0099683B685A683B68DB6800F06AF97B684C
:10270C001B689B68BB60BB6843F07703BB607B684E
:10271C001B68BA689A604FE07B6818683B689968D8
:10272C003B685A683B68DB6800F053F97B681B68B0
:10273C009A687B681B6842F480429A603CE07B6834
:10274C0018683B6859683B68DB681A4600F0CAF8A1
:10275C007B681B685021184600F021F92CE07B683F
:10276C0018683B6859683B68DB681A4600F0E8F863
:10277C007B681B686021184600F011F91CE07B682F
:10278C0018683B6859683B68DB681A4600F0AAF881
:10279C007B681B684021184600F001F90CE07B684F
:1027AC001A683B681B681946104600F0F8F803E0FD
:1027BC000123FB7300E000BF7B68012283F83D20FE
:1027CC007B68002283F83C20FB7B18461037BD4603
:1027DC0080BD80B483B000AF786000BF0C37BD46BD
:1027EC0080BC704780B483B000AF786000BF0C37FA
:1027FC00BD4680BC704780B483B000AF786000BF2A
:10280C000C37BD4680BC704780B483B000AF786095
:10281C0000BF0C37BD4680BC7047000080B485B04B
:10282C0000AF786039607B681B68FB607B682B4A63
:10283C00934207D07B68B3F1804F03D07B68284A62
:10284C00934208D1FB6823F07003FB603B685B6824
:10285C00FA681343FB607B68204A934207D07B687D
:10286C00B3F1804F03D07B681D4A934208D1FB68BB
:10287C0023F44073FB603B68DB68FA681343FB602E
:10288C00FB6823F080023B685B691343FB607B6849
:10289C00FA681A603B689A687B68DA623B681A6867
:1028AC007B689A627B680D4A934203D13B681A6934
:1028BC007B681A637B6801225A617B681B6903F091
:1028CC000103002B05D07B681B6923F001027B6898
:1028DC001A6100BF1437BD4680BC7047002C014004
:1028EC000004004080B487B000AFF860B9607A6033
:1028FC00FB681B6A7B61FB681B6A23F00102FB68A7
:10290C001A62FB689B693B613B6923F0F0033B61F6
:10291C007B681B013A6913433B617B6923F00A0313
:10292C007B617A69BB6813437B61FB683A699A6186
:10293C00FB687A691A6200BF1C37BD4680BC7047C1
:10294C0080B487B000AFF860B9607A60FB681B6A2E
:10295C007B61FB681B6A23F01002FB681A62FB6840
:10296C009B693B613B6923F470433B617B681B03B0
:10297C003A6913433B617B6923F0A0037B61BB681D
:10298C001B017A6913437B61FB683A699A61FB68A6
:10299C007A691A6200BF1C37BD4680BC704780B490
:1029AC0085B000AF786039607B689B68FB60FB6822
:1029BC0023F07003FB603A68FB68134343F0070392
:1029CC00FB607B68FA689A6000BF1437BD4680BC18
:1029DC00704780B487B000AFF860B9607A603B6034
:1029EC00FB689B687B617B6923F47F437B613B685D
:1029FC001A027B681A43BB6813437A6913437B61E1
:102A0C00FB687A699A6000BF1C37BD4680BC704772
:102A1C0080B485B000AF786039607B6893F83C3047
:102A2C00012B01D1022341E07B68012283F83C2079
:102A3C007B68022283F83D207B681B685B68FB6027
:102A4C007B681B689B68BB60FB6823F07003FB60B2
:102A5C003B681B68FA681343FB607B681B68FA6869
:102A6C005A607B681B68144A934209D07B681B68C8
:102A7C00B3F1804F04D07B681B68104A93420CD191
:102A8C00BB6823F08003BB603B685B68BA68134388
:102A9C00BB607B681B68BA689A607B68012283F80C
:102AAC003D207B68002283F83C2000231846143715
:102ABC00BD4680BC704700BF002C014000040040A4
:102ACC0080B483B000AF786000BF0C37BD4680BCCB
:102ADC00704780B483B000AF786000BF0C37BD4640
:102AEC0080BC704770B500260C4D0D4C641BA410B7
:102AFC00A64209D100F022F800260A4D0A4C641BAC
:102B0C00A410A64205D170BD55F8043B9847013678
:102B1C00EEE755F8043B98470136F2E7882B00089E
:102B2C00882B0008882B00088C2B000803460244D5
:102B3C00934200D1704703F8011BF9E7F8B500BFC9
:102B4C00F8BC08BC9E467047F8B500BFF8BC08BC82
:042B5C009E467047DA
:102B60000400000000000000000000000102030457
:102B70000607080902030405060708090A0B0C0DDD
:082B80000E0F1010010200000D
:042B8800310100080F
:042B8C000D0100082F
:102B90000101010001010100010101000101010029
:102BA000000C0140000C0140000C014080000001BD
:102BB000000200000100000005000000020000000B
:102BC0000300000000127A00100000000100000065
:04000005080014D10A
:00000001FF
